:020000040800F2
:1000000070650020DD0100082D100008D5060008ED
:100010002910000855030008A51A00080000000078
:100020000000000000000000000000004501000882
:10003000590300080000000089010008A9290008F0
:10004000F7010008F7010008F7010008F7010008B0
:10005000F7010008F70100085D030008F701000838
:10006000F7010008F7010008F7010008F701000890
:10007000F7010008F7010008F7010008F701000880
:10008000F7010008F7010008F7010008F701000870
:10009000F7010008F7010008F7010008F701000860
:1000A000F7010008F7010008F7010008F701000850
:1000B000F7010008F7010008F7010008F701000840
:1000C000F7010008F7010008F7010008F701000830
:1000D000F7010008F7010008F7010008F701000820
:1000E000F7010008F7010008F7010008F701000810
:1000F000F7010008F7010008F7010008F701000800
:10010000F7010008F7010008F7010008F7010008EF
:10011000F7010008F7010008F7010008F7010008DF
:10012000F7010008F7010008F7010008F7010008CF
:10013000DFF80CD000F0C6F800480047B1200008F6
:1001400070650020224B19680868B0E8F00F80F352
:100150000988BFF36F8F4FF0000080F311884EF0D5
:100160000D0E70470000000006480068006880F32C
:10017000088862B661B6BFF34F8FBFF36F8F00DFA1
:1001800000BF00BF08ED00E0EFF30980BFF36F8F01
:100190000F4B1A6820E9F00F106008B54FF0BF0050
:1001A00080F31188BFF34F8FBFF36F8F02F0B2FB64
:1001B0004FF0000080F31188BDE808401968086816
:1001C000B0E8F00F80F30988BFF36F8F704700BF6E
:1001D00058000020EFF30580704700000648804774
:1001E00006480047FEE7FEE7FEE7FEE7FEE7FEE71C
:1001F000FEE7FEE7FEE7FEE7111700083101000801
:100200002DE9F05F0546002092469B46884606464B
:10021000814640241BE0284641464746224600F0DE
:1002200041F853465A46C01A914110D31146184618
:10023000224600F028F82D1A67EB01084F462246A7
:100240000120002100F01FF817EB00094E41201E8D
:10025000A4F10104DFDC484631462A464346BDE8A6
:10026000F09FD2B201E000F8012B491EFBD270478B
:100270000022F6E710B513460A4604461946FFF772
:10028000F0FF204610BD202A04DB203A00FA02F1DC
:10029000002070479140C2F1200320FA03F3194374
:1002A00090407047202A04DB203A21FA02F0002116
:1002B000704721FA02F3D040C2F120029140084376
:1002C00019467047064C074D06E0E06840F0010310
:1002D00094E8070098471034AC42F6D3FFF72CFFA0
:1002E000302D0008502D00081CB5012402F016FA2C
:1002F0000848022100234A02CDE9001006A108485F
:1003000002F06CFB04460748006802F05BFA02F05A
:1003100017FA1CBD240000207465737400000000EF
:10032000212600081400002010B50121402001F012
:10033000E1F84FF4407000F0B3FE01F0EFFA01F085
:10034000B3FB00F059FB00F0B5FE00F0E7FD01F053
:100350007FFE10BD00BFFEE77047000010B5012012
:1003600000F014F840B10548006880F0200003490F
:100370000860012000F004F810BD00000C0C0140E2
:100380000149086070470000140401400146002044
:100390000022074B1B6803EA0102054B14331B685C
:1003A0000B4013B10AB1012000E0002070470000AB
:1003B00000040140002123498279002A3AD00A46EC
:1003C000126803689A430B461A600A1D1268036894
:1003D0009A430B1D1A60027911440A6803681A4394
:1003E0000A60184A0832126803689A43154B0833AA
:1003F0001A601A1D126803689A43124B0C331A6074
:100400004279102A0ED11A1F126803681A430D4B45
:1004100008331A601A1D126803681A43094B0C331B
:100420001A600DE00749427911440A6803681A43CB
:100430000A6005E0027911440A6803689A430A6079
:10044000704700000004014051B18200A2F1C04297
:10045000126842F001038200A2F1C042136009E079
:100460008200A2F1C0421268034B1A408300A3F13C
:10047000C0431A6070470000FEFF0F00D0E9011270
:100480001143C268114302691143426911438269F1
:100490001143C2691143026A1143426A1143826ADD
:1004A0001143C26A1143026B114302689200A2F128
:1004B000C0421160816808290BD101688900A1F14F
:1004C000C041096841F0400201688900A1F1C041C2
:1004D0000A60416B0968426B526841EA0211426B43
:1004E000926841EA0221426B928941EA0241426BE1
:1004F000128A41EA0251426B127D41EA0261426B6B
:10050000926911430268521C9200A2F1C04211602C
:10051000C16AB1F5804F1BD1816B0968826B52684B
:1005200041EA0211826B926841EA0221826B128ACF
:1005300041EA0251826B127D41EA0261826B92694B
:10054000114302689200A2F1C042C2F8041107E010
:100550006FF0704201688900A1F1C041C1F8042127
:100560007047000030B500228B071C0F0F2303FAE1
:1005700004F20B4B8C1053F824309343084C8D102D
:1005800044F8253023468C1053F824308C07240F70
:1005900000FA04F42343024C8D1044F8253030BD9A
:1005A000080001402DE9F041024600250026002008
:1005B00000230024002791F803C00CF00F0591F8E8
:1005C00003C00CF0100CBCF1000F03D091F802C076
:1005D0004CEA050591F800C0BCF1000F31D0146859
:1005E00000202BE04FF0010C0CFA00F3B1F800C032
:1005F0000CEA03069E4220D183004FF00F0C0CFA48
:1006000003F7BC4305FA03FC4CEA040491F803C069
:10061000BCF1280F06D14FF0010C0CFA00FCC2F817
:1006200014C00AE091F803C0BCF1480F05D14FF0A7
:10063000010C0CFA00FCC2F810C0401C0828D1D3F1
:100640001460B1F800C0BCF1FF0F34DD5468002025
:100650002EE000F1080C4FF0010808FA0CF3B1F895
:1006600000C00CEA03069E4221D183004FF00F0C1C
:100670000CFA03F7BC4305FA03FC4CEA040491F8B6
:1006800003C0BCF1280F05D100F1080C08FA0CF8E2
:10069000C2F8148091F803C0BCF1480F07D100F1F3
:1006A000080C4FF0010808FA0CF8C2F81080401C42
:1006B0000828CED35460BDE8F0810246002093683C
:1006C0000B400BB1012000E00020704741617047F2
:1006D0000161704700BFFEE710B504462CB14FF42E
:1006E00080510548FFF7F2FF04E04FF480510248C3
:1006F000FFF7EEFF10BD00000014014001B502E05D
:100700000098401E009000980028F9D108BD00B55F
:1007100097B03C2108A8FFF7ABFD1C2101A8FFF70B
:10072000A7FD0121080200F0E5FE01200190042050
:100730000390800607900020029004900590069098
:100740000890099008200A9010200B9000200C902F
:100750000E900F9010904FF4805011900020129046
:100760001390149001A81590169008A8FFF786FE24
:1007700001210020FFF768FE17B000BD08B500207A
:1007800000900121602000F0D5FE03208DF80200CA
:1007900018208DF803004FF48040ADF80000694642
:1007A0005B48FFF7FFFE4FF40040ADF800006946DC
:1007B0005748FFF7F7FE0120ADF80000694654489E
:1007C000FFF7F0FE0220ADF8000069465048FFF741
:1007D000E9FE8020ADF8000069464E48FFF7E2FED2
:1007E0004FF48070ADF8000069464A48FFF7DAFE22
:1007F0004FF40070ADF8000069464648FFF7D2FE9E
:100800004FF48060ADF8000069464248FFF7CAFE29
:100810004FF40060ADF8000069463E48FFF7C2FEA5
:100820004FF48050ADF8000069463A48FFF7BAFE31
:100830004FF40050ADF8000069463648FFF7B2FEAD
:100840004FF48040ADF8000069463248FFF7AAFE39
:100850004FF40040ADF8000069462E48FFF7A2FEB5
:100860004FF48070ADF8000069462948FFF79AFE02
:100870004FF40070ADF8000069462548FFF792FE7E
:100880004FF48060ADF8000069462148FFF78AFE0A
:1008900003208DF8020018208DF803001020ADF819
:1008A000000069461A48FFF77DFE2020ADF80000E1
:1008B00069461748FFF776FE8020ADF800006946CC
:1008C0001348FFF76FFE4FF40060ADF80000694673
:1008D0000F48FFF767FE10208DF8030003208DF806
:1008E00002000220ADF8000069460A48FFF75AFEF0
:1008F00010208DF8030003208DF802004FF4805083
:10090000ADF8000069460248FFF74CFE08BD000044
:10091000001401400018014000B50246072A00DD1E
:1009200000BD31480270104602EBD0714910A2EBB5
:10093000410139B9F0202D4908804FF4A0702C49AD
:10094000088006E04FF4A07028490880F02028496C
:100950000880362000F0D8FA2648008849F2413154
:10096000884205D1082141EA421000F0D1FA0AE09C
:100970002048008848F25251884204D1002141EABF
:10098000421000F0C5FA2A2000F0BEFA002000F064
:10099000BFFA002000F0BCFA14490988491EC1F3CF
:1009A000072000F0B5FA11490978491EC8B200F0D5
:1009B000AFFA2B2000F0A8FA002000F0A9FA0020DE
:1009C00000F0A6FA0A490988491EC1F3072000F081
:1009D0009FFA07490978491EC8B200F099FA2C20FD
:1009E00000F092FA00BF9BE7A00000209C000020CE
:1009F0009E000020A200002010B5FFF7BFFEFFF709
:100A000086FE0120FFF768FE00F06AFA00F008F8A1
:100A100002480078FFF780FF10BD0000A000002012
:100A200010B500F025FAFE4908800846008849F212
:100A3000413188427ED1CF2000F066FA002000F0DC
:100A400067FA812000F064FA302000F061FAED20AE
:100A500000F05AFA642000F05BFA032000F058FA24
:100A6000122000F055FA812000F052FAE82000F040
:100A70004BFA852000F04CFA102000F049FA78205B
:100A800000F046FACB2000F03FFA392000F040FA9F
:100A90002C2000F03DFA002000F03AFA342000F05B
:100AA00037FA022000F034FAF72000F02DFA202067
:100AB00000F02EFAEA2000F027FA002000F028FAD1
:100AC000002000F025FAB12000F01EFA002000F00E
:100AD0001FFA1B2000F01CFAB62000F015FA0A20BD
:100AE00000F016FAA22000F013FAC02000F00CFA71
:100AF000352000F00DFAC12000F006FA112000F0B8
:100B000007FAC52000F000FA452000F001FA452060
:100B100000F0FEF9C72000F0F7F9A22000F0F8F984
:100B2000F22000F0F1F9002000F0F2F9262000F0A8
:100B3000EBF900E096E0012000F0EAF9E02000F097
:100B4000E3F90F2000F0E4F9262000F0E1F9242079
:100B500000F0DEF90B2000F0DBF90E2000F0D8F9F0
:100B6000092000F0D5F9542000F0D2F9A82000F0B7
:100B7000CFF9462000F0CCF90C2000F0C9F917207D
:100B800000F0C6F9092000F0C3F90F2000F0C0F909
:100B9000072000F0BDF9002000F0BAF9E12000F0D4
:100BA000B3F9002000F0B4F9192000F0B1F91B20CE
:100BB00000F0AEF9042000F0ABF9102000F0A8F925
:100BC000072000F0A5F92A2000F0A2F9472000F044
:100BD0009FF9392000F09CF9032000F099F90620D4
:100BE00000F096F9062000F093F9302000F090F91B
:100BF000382000F08DF90F2000F08AF9362000F03F
:100C000083F9C82000F084F92A2000F07DF9002043
:100C100000F07EF9002000F07BF9002000F078F968
:100C2000EF2000F075F92B2000F06EF9002000F0A5
:100C30006FF9002000F06CF9012000F069F93F2005
:100C400000F066F93A2000F05FF9552000F060F9F5
:100C5000112000F059F97348FFF750FD292000F0EA
:100C600053F901E16E48008848F252518842F8D1A8
:100C7000CF2000F049F9002000F04AF9C12000F02F
:100C800047F9302000F044F9ED2000F03DF96420F0
:100C900000F03EF9032000F03BF9122000F038F993
:100CA000812000F035F9E82000F02EF9852000F0D1
:100CB0002FF9102000F02CF9782000F029F9CB2032
:100CC00000F022F9392000F023F92C2000F020F95F
:100CD000002000F01DF9342000F01AF9022000F085
:100CE00017F9F72000F010F9202000F011F9EA20A0
:100CF00000F00AF9002000F00BF9002000F008F9DC
:100D0000C02000F001F9212000F002F9C12000F01C
:100D1000FBF8112000F0FCF8C52000F0F5F82D20BC
:100D200000F0F6F8332000F0F3F8362000F0ECF88D
:100D3000002000F0EDF83A2000F0E6F8552000F031
:100D4000E7F8B12000F0E0F8002000F0E1F817200B
:100D500000F0DEF8B62000F0D7F80A2000F0D8F84E
:100D6000A22000F0D5F8F62000F0CEF8012000F027
:100D7000CFF8302000F0CCF8F22000F0C5F80020C9
:100D800000F0C6F8262000F0BFF8012000F0C0F8FF
:100D9000E02000F0B9F8D02000F0BAF8002000F010
:100DA000B7F8022000F0B4F8072000F0B1F80B20EB
:100DB00000F0AEF81A2000F0ABF8312000F0A8F8EF
:100DC000542000F0A5F8402000F0A2F8292000F0FF
:100DD0009FF8122000F09CF8122000F099F81220E1
:100DE00000F096F8172000F093F8E12000F08CF85E
:100DF000D02000F08DF8002000F08AF8022000F0EA
:100E000087F8072000F084F8052000F081F82520FD
:100E100000F07EF82D2000F07BF8442004E0000074
:100E2000A2000020FCBF020000F072F8452000F094
:100E30006FF81C2000F06CF8182000F069F81620FC
:100E400000F066F81C2000F063F81D2000F060F848
:100E5000112000F059F80548FFF750FC292000F058
:100E600053F82C2000F050F810BD0000FCBF020029
:100E700000B50022042000F047F800F02BF800F045
:100E800029F800F027F802464FF6FF7000EA022228
:100E900000F020F8024348F25250824201D110463D
:100EA00000BDD32000F030F800F014F800F012F884
:100EB00000F010F802464FF6FF7000EA022200F040
:100EC00009F8024349F24130824201D11046E7E776
:100ED0000020E5E70148008870470000000002603C
:100EE00010B502210748FFF7F1FB40F6FF20FFF79E
:100EF00005FC02210348FFF7EBFB40F6FF20FFF75C
:100F0000FDFB10BD001801404FF0C0410880704744
:100F100001490880704700000000026008B5002009
:100F200000900121082000F005FB2020ADF8000012
:100F300010208DF8030003208DF8020069460F4849
:100F4000FFF730FB0120ADF8000069460B48FFF7C2
:100F500029FB0220ADF8000069460848FFF722FB94
:100F600020210648FFF7B4FB01210448FFF7B0FB3E
:100F700002210248FFF7ACFB08BD0000000C014055
:100F800070B50025002400BF1BE04FF400710F482E
:100F9000FFF79CFB0A2001F03BF84FF400510B488F
:100FA000FFF78BFBC4F1070188402843C5B24FF41B
:100FB00000710648FFF78CFB0A2001F029F8601C3D
:100FC000C4B2082CE1DB284670BD0000000C0140D3
:100FD00070B50446002521E04FF400711148FFF779
:100FE00075FB04F0800028B14FF480510D48FFF7E5
:100FF0006FFB04E04FF480510A48FFF767FB0A20BB
:1010000001F006F84FF400710648FFF761FB0A2073
:1010100000F0FEFF6006040E681CC5B2082DDBDB85
:1010200070BD0000000C014000BFFEE770470000EB
:1010300070B5002100230F22C47804B3154C246836
:1010400004F4E064C4F5E064210AC1F10403CA4079
:10105000447804FA03F184781440214309010E4CCA
:101060000678A155047804F01F050124AC400578EA
:101070006D11AD0005F1E025C5F8004109E00478E7
:1010800004F01F050124AC40044D0678761145F8A4
:10109000264070BD0CED00E000E400E080E100E0DF
:1010A00002490143024A1160704700000000FA053E
:1010B0000CED00E000B589B00121042000F03AFAFF
:1010C0000121022000F026FA18208DF8230040208C
:1010D000ADF8200003208DF8220008A91B48FFF777
:1010E00061FA1B4800F05FFB0020ADF81A00ADF874
:1010F000160040F2CF70ADF8180040F2CF20ADF8E6
:10110000140000208DF81C0005A9114800F0A8FB70
:1011100001A800F09BFB6020ADF804000020ADF8B2
:101120000C000120ADF806000020ADF80A0001A96E
:10113000074800F03FFB0121054800F019FB0121A1
:10114000034800F021FB09B000BD00000008014089
:1011500000040040F0B587B0054600270821084686
:1011600000F006F900210D2000F0AAF980210E20E0
:1011700000F0FEF893208DF8080020208DF809007B
:1011800001A802AB022202A900900C2000F01BF87B
:101190000646262E10D1002407E002A8005D28553F
:1011A00002A8005D4740601CC4B2042CF5DB02A815
:1011B000005DB84200D0BB2680210E2000F072F9FD
:1011C000304607B0F0BD2DE9FE4F064688469146F1
:1011D0009A46DDF830B0BB200290002001900090CC
:1011E0000C2E06D00E2E09D1122001901020009056
:1011F00005E0772001903020009000E000BF00BFA4
:10120000019840F08001022000F05AF9802104206A
:1012100000F0AEF80021012000F052F980210A20F0
:1012200000F040F9002505E018F80510092000F04D
:1012300047F96D1C4D45F7D33146012000F040F9C8
:101240000C2E03D180210D2000F02CF94FF47A757B
:1012500000BF042000F0C4F804466D1E35B104F050
:10126000010018B9009820400028F2D080210D20FC
:1012700000F07EF895B3062000F0B2F800F01B00F5
:1012800068BB262002900198204000F0010008B1C0
:10129000CC2002900C2E24D10A2000F0A1F80446A4
:1012A0000C2000F09DF800F007072FB1601E07EB3F
:1012B000C000CBF8000002E0E000CBF8000004B969
:1012C0000124122C00DD1224002505E0092000F085
:1012D00087F80AF805006D1CA542F7D301E0BB2092
:1012E000029080210C2000F0DDF80021012000F0A8
:1012F000E7F80298BDE8FE8F70B588B005460C4649
:101300000821084600F034F807210D2000F0D8F835
:101310000321142000F0C6F88DF80C5002A803AB8E
:10132000012203A900900C20FFF74DFF0646262E50
:1013300009D10298102806D19DF80C0020709DF864
:101340000D00607000E0BB26304608B070BD10B5DF
:10135000142000F045F8044604F0030018B90321F6
:10136000142000F09FF8142000F03AF8044610BD55
:1013700070B505460C46284600F032F8064626EAC7
:101380000401284600F09CF870BD10B50446412CBD
:1013900025D108210846FFF7EBFF3D21112000F081
:1013A0008FF88621172000F08BF87F21262000F08F
:1013B00087F81E212D2000F083F800212C2000F05A
:1013C0007FF88D212A2000F07BF83E212B2000F0B1
:1013D00077F84FF4FA6000F01BFEFFF7B8FF10BD7E
:1013E00070B504467E2000EA440040F080064FF4C9
:1013F00080710848FFF76AF93046FFF7E9FDFFF70B
:10140000BFFD05464FF480710248FFF761F9284699
:1014100070BD0000000C014010B54FF48041204821
:10142000FFF756F94FF47A7000F0F2FD4FF4804167
:101430001B48FFF74BF94FF47A7000F0E9FD4FF4C9
:1014400080411748FFF744F94FF47A7000F0E0FD4F
:101450000F21012000F034F800BF0120FFF7C0FF8A
:1014600000F010000028F8D10A2000F0D1FD3D2145
:10147000112000F025F81E212D2000F021F8002178
:101480002C2000F01DF88D212A2000F019F83E21B3
:101490002B2000F015F84021152000F011F810BDA8
:1014A000000C014070B505460C462846FFF798FF32
:1014B000064646EA0401284600F002F870BD000026
:1014C00070B504460D467E2000EA44064FF4807154
:1014D0000748FFF7FBF83046FFF77AFD2846FFF78D
:1014E00077FD4FF480710248FFF7F2F870BD0000FD
:1014F000000C014029B1064A52690243044B5A616B
:1015000004E0034A52698243014B5A61704700006C
:101510000010024029B1064AD2690243044BDA6145
:1015200004E0034AD2698243014BDA61704700004C
:101530000010024029B1064A92690243044B9A61A5
:1015400004E0034A92698243014B9A6170470000AC
:101550000010024030B500210022002400232D4D50
:101560006D6805F00C0121B1042905D0082923D1AB
:1015700005E0294D056022E0274D05601FE0254D5F
:101580006D6805F47012234D6D6805F480340225F2
:1015900005EB92421CB9214D554305600BE01D4DF2
:1015A0006D6805F400351DB11C4D5543056002E022
:1015B000194D5543056002E0174D056000BF00BF9F
:1015C000144D6D6805F0F0010909154D6B5C056857
:1015D000DD4045600F4D6D6805F4E061090A104D6E
:1015E0006B5C4568DD4085600A4D6D6805F46051AF
:1015F000C90A0B4D6B5C4568DD40C560054D6D68E3
:1016000005F44041890B074D6B5CC568B5FBF3F5EC
:10161000056130BD0010024000127A0000093D0053
:10162000000000201000002010B500F001F810BDEF
:101630000CB50020019000903348006840F48030E1
:101640003149086000BF3048006800F40030009065
:101650000198401C0190009818B90198B0F5A06F4E
:10166000F1D12948006800F4003010B10120009049
:1016700001E0002000900098012843D12348006831
:1016800040F01000214908600846006820F003007F
:1016900008600846006840F0020008601A48406888
:1016A000194948600846406848600846406840F468
:1016B000806048600846406820F47C104860084616
:1016C000406840F4E81048600846006840F08070C8
:1016D000086000BF0C48006800F000700028F9D0D6
:1016E0000948406820F00300074948600846406800
:1016F00040F00200486000BF0348406800F00C0062
:101700000828F9D10CBD0000001002400020024062
:1017100010B51348006840F0010011490860084600
:101720004068104908400E494860084600680E4964
:1017300008400B4908600846006820F480200860D3
:101740000846406820F4FE0048604FF41F0088609F
:10175000FFF76AFF4FF000600449086010BD000009
:10176000001002400000FFF8FFFFF6FE08ED00E069
:1017700021B1028842F00102028004E002884FF6A3
:10178000FE731A400280704731B1B0F8442042F431
:101790000042A0F8442005E0B0F84420C2F30E0255
:1017A000A0F84420704701894FF6F872114001817A
:1017B0007047000070B5002400220023058C4FF60E
:1017C000FE7635400584028C8388048B4FF68F7536
:1017D0002C40B51E2C400D882C43751E2A400D89C7
:1017E0002A434D882A43144DA8420BD0134DA842DA
:1017F00008D0134DA84205D0124DA84202D0124D78
:10180000A84213D14FF6F7752A404D892A434FF667
:10181000FB752A408D882A434FF6FF652B404FF613
:10182000FF552B408D892B43CD892B438380048327
:10183000CD888586028470BD002C014000340140B3
:101840000040014000440140004801400021018067
:1018500041808180C180018141818181C181704746
:10186000002202881D4B98420ED01D4B98420BD08F
:10187000B0F1804F08D01B4B984205D01A4B9842CC
:1018800002D01A4B984204D14FF68F731A404B88FE
:101890001A43174B984207D0164B984204D04FF684
:1018A000FF431A40CB881A4302808B8883850B88BC
:1018B00003850A4B98420BD0094B984208D00E4B37
:1018C000984205D00D4B984202D00D4B984201D161
:1018D0000B7A03860123838270470000002C0140AD
:1018E000003401400004004000080040000C0040AB
:1018F000001000400014004000400140004401403E
:101900000048014021B1828942F40052828104E002
:1019100082894DF6FF731A408281704700B585B009
:101920000020049000900190029003900121042077
:10193000FFF700FE01218803FFF7FCFD4FF4007064
:10194000ADF8100018208DF8130003208DF8120058
:1019500004A91348FEF726FE4FF48060ADF810008E
:1019600004208DF8130004A90D48FEF71BFE4FF468
:10197000E13000900020ADF80400ADF80600ADF8AD
:101980000800ADF80C000C20ADF80A0069460548C7
:1019900000F018F801210348FFF7B4FF05B000BDBF
:1019A000000801400038014002460020B1F5007FE8
:1019B00000D100BF13880B400BB1012000E00020D4
:1019C000704700002DE9F04786B005460E4600241A
:1019D000A24600BFA1460027B08900B100BF2F4634
:1019E0002C8A4CF6FF700440F08804432C82AC89AA
:1019F0004EF6F3100440B0883189084371890843DA
:101A00000443AC81AC8A4FF6FF400440B0890443E4
:101A1000AC8201A8FFF79EFD1F48874202D1DDF886
:101A200010A001E0DDF80CA0A88900F4004040B14E
:101A30000AEBCA0000EB0A1031684900B0FBF1F86C
:101A400007E00AEBCA0000EB0A1031688900B0FB1E
:101A5000F1F86420B8FBF0F004012009642101FBD7
:101A60001089A88900F4004040B1322000EBC90081
:101A7000B0FBF1F000F00700044308E0322000EB77
:101A800009106421B0FBF1F000F00F0004432C8139
:101A900006B0BDE8F087000000380140C1F308023D
:101AA0008280704700BFFEE708B50020009001214A
:101AB0006020FFF73FFD0120ADF800008DF8020027
:101AC00010208DF8030069461A48FEF76BFD0420CC
:101AD000ADF8000069461748FEF764FD0820ADF830
:101AE000000001208DF8020048208DF803006946AF
:101AF0001048FEF757FD4FF40050ADF800000120EC
:101B00008DF8020010208DF8030069460A48FEF7A0
:101B100049FD4FF400510848FEF7D8FD1020ADF8FC
:101B2000000048208DF8030069460248FEF73AFDA0
:101B300008BD000000180140001401400FB4054B1F
:101B400010B503A9044A029800F02CF810BC5DF807
:101B500014FB00002D200008A40000200FB4084B47
:101B600010B504A902AA039800F01CF8044602A9C3
:101B7000002000F048FA204610BC5DF814FB00007D
:101B80000720000802E008C8121F08C1002AFAD185
:101B900070477047002001E001C1121F002AFBD1ED
:101BA000704700002DE9FF4F8DB00F460546002617
:101BB00006E025280BD0DDE90F1290476D1C761C3E
:101BC00028780028F5D111B03046BDE8F08F002408
:101BD000A246A1460122EC4900E0044315F8013F6A
:101BE000203B02FA03F00842F7D128782A2810D0C7
:101BF0006FF02F022878A0F13001092914D80AEBE0
:101C00008A0102EB410144F0020400EB010A6D1C61
:101C1000F0E701CF5FEA000A03D544F40054CAF1AB
:101C2000000A44F002046D1C28782E2817D115F8FC
:101C3000010F44F004042A280ED06FF02F022878F8
:101C4000A0F1300109290AD809EB890102EB410111
:101C500000EB01096D1CF2E757F8049B6D1C287816
:101C60006C280FD006DC4C2817D068280DD06A28C5
:101C700014D104E0742810D07A280FD10DE044F478
:101C800000140AE044F4801401E044F4401469783C
:101C9000814202D104F580146D1C6D1C2A786E2AD5
:101CA0001FD00CDC632A31D004DC002A8BD0582AE8
:101CB00011D1A3E0642A68D0692A0CD165E0732AA7
:101CC0002ED004DC6F2A73D0702A04D19BE0752AD1
:101CD0006FD0782A6ED01046DDE90F129047761C3F
:101CE00050E1C4F30250022806D0032809D004288A
:101CF00001CF09D0066045E101CFF117C0E90061CD
:101D000040E101CF06803DE106703BE117F8040B8E
:101D10008DF8000000208DF80100EB46012003E063
:101D200057F804BB4FF0FF3061074FF0000102D4B9
:101D30000DE008F10101884649450FDA8045F8DBDE
:101D40001BF808100029F4D108E008F101018846C9
:101D50008142FADB1BF808100029F6D1DDE90F23D8
:101D6000AAEB08008146214600F036F9304400EB2A
:101D7000080604E0DDE90F121BF8010B9047B8F1EB
:101D80000108F7D221464846F7E00A21C4F302537E
:101D90004FF0000B0891022B04D001CFC117032B89
:101DA00009D00AE0FF1D27F00707F7E8020108E065
:101DB00032E01FE020E000B2C117042B01D140B295
:101DC000C117031E71F1000307DA4FF0000CD0EBCE
:101DD0000C006CEB01012D2302E0230504D52B231D
:101DE0008DF82430012303E0E30701D02023F7E737
:101DF000984658E00A2110E010210EE010204FF024
:101E0000000B08900CE010214FF0000B44F004048C
:101E10004FF00809089103E008214FF0000B0891EA
:101E2000C4F30253022B04D001CF0021032B06D0B0
:101E300006E0FF1D27F00707F7E8020103E080B284
:101E4000042B00D1C0B24FF0000823072BD5702A15
:101E500007D0DDF820C08CF0100C5CEA0B0C05D02C
:101E60000EE040238DF82430012308E050EA0103FE
:101E700006D030238DF824308DF825200223984693
:101E8000DDF820C08CF0080C5CEA0B0C0BD150EA9A
:101E9000010301D1630706D530238DF824304FF0BC
:101EA0000108A9F10109582A04D038A20B9208AA06
:101EB0000A920BE03AA2F9E75B46089AFEF7A0F90E
:101EC0000B9B9B5C0A9A521E0A92137050EA010205
:101ED000F2D10A98ADEB000000F1200B600702D5AB
:101EE00024F4803401E04FF00109D94502DDA9EB6B
:101EF0000B0000E0002000EB0B0141440890AAEB2E
:101F0000010AE00306D4DDE90F232146504600F024
:101F100063F806444FF0000908E009A911F8090028
:101F2000DDE90F12904709F10109761CC145F4DB88
:101F3000E0030CD5DDE90F232146504600F04CF8B4
:101F4000064404E0DDE90F1230209047761C089922
:101F5000481E08900029F5DC08E00A980A990078E4
:101F6000491C0A91DDE90F129047761CBBF1000174
:101F7000ABF1010BF1DC21465046DDE90F2300F007
:101F800019F806446D1C1BE6092801003031323374
:101F900034353637383961626364656600000000A5
:101FA000303132333435363738394142434445468F
:101FB000000000002DE9F041044600251E461746AA
:101FC000880404D405E039462020B0476D1C641E07
:101FD000F9D52846BDE8F0812DE9F04104460025F9
:101FE0001E469046C80301D5302700E0202788040C
:101FF00004D505E041463846B0476D1C641EF9D54E
:102000002846BDE8F0810A68531C0B6010707047C9
:1020100001B5002006E00C2100BF4A1ED2B2111EFD
:10202000FBD1401C00998842F5D308BD70B5044629
:102030000D46E1B20548FFF731FD00BF802103489E
:10204000FFF7B2FC0028F9D0204670BD00380140EF
:102050001FB501210520FFF76DFA04208DF80F0050
:102060000120ADF80C0003A91048FEF79BFA0021EF
:102070000846FEF777FA0120019000208DF808004D
:1020800008208DF8090001208DF80A0001A8FEF74C
:1020900091F906208DF8000001208DF802008DF8DE
:1020A00003006846FEF7C4FF1FBD000000080140A2
:1020B0001CB50124FEF738F90A48012100234A0221
:1020C000CDE9001008A10C4800F088FC0446012C62
:1020D00002D100F0E1FB02E04FF0FF301CBD00BF79
:1020E000FEE70000140000204170705461736B43E0
:1020F0007265617465000000E902000810B50446CD
:1021000000F00CFB2F480068401C2E4908602E4848
:10211000006840B92C4804600846006801280DD1C9
:1021200000F016F90AE02948006838B92648006826
:10213000C06AE16A884201D82348046024480068E4
:10214000401C2349086094F82C1001208840214944
:10215000096808431F490860E16A01EB81011E4AD2
:1021600002EB81014868A0608268E260211D8268FC
:1021700051608160E16A01EB8101174A02EB810243
:102180006261E16A01EB8101134A52F82110491C96
:10219000E26A02EB8202104B43F8221000F0D0FA00
:1021A0000A48006868B108480068C06AE16A884265
:1021B00007D24FF0805009490860BFF34F8FBFF33B
:1021C0006F8F10BD680000205800002074000020B0
:1021D0008400002070000020A844002004ED00E0EE
:1021E00010B516E000F09AFA0C48C068C468201DCB
:1021F00000F064FA0A480068401E0949086009486E
:102200000068401E0749086000F09AFA204600F076
:102210000BF8044800680028E4D110BD48450020B0
:10222000680000206400002010B50446206B00F018
:1022300097FA204600F094FA10BD000030B54FF434
:102240008843154800F007042CB1C01D20F007009A
:10225000114C041B1B1B0246104C226000240F4D26
:102260006C60D018083820F007000D4C2060002466
:102270000B4D2D686C600A4D2D682C601146441A78
:102280004C60074C24680C60064D4C682C60064D71
:102290004C682C6030BD0000A80000203C000020ED
:1022A000440000204C0000204800002000BFFFF741
:1022B00097FF064800680128F9D94FF0805004497B
:1022C0000860BFF34F8FBFF36F8FF0E7A844002083
:1022D00004ED00E02DE9FF5F80460E469146DDE902
:1022E0000E7A109CA9F10100216B01EB800B2BF001
:1022F000070B7EB1002507E0715D04F13400415504
:10230000705D00B902E06D1C102DF5D300BF0021F7
:1023100043200155052F00D30427E7626764201D81
:1023200000F0EDF904F1180000F0E9F92461C7F1BB
:102330000500A061646241465846039A00F006F920
:102340002060BAF1000F01D0CAF80040BDE8FF9F3D
:1023500010B5002407E004EB84010F4A02EB810072
:1023600000F0C0F9641C052CF5D30C4800F0BAF954
:102370000B4800F0B7F90B4800F0B4F90A4800F038
:10238000B1F90A4800F0AEF9044809490860044868
:102390000849086010BD0000A84400200C4500203A
:1023A0002045002034450020484500205C450020A1
:1023B0005C0000206000002010B50146164800E0D7
:1023C000006803688B42FBD30246436813448B4288
:1023D00004D143684C682344436001460A464B6875
:1023E00013440468A34211D10C4C03682468A3422F
:1023F00008D04B680468646823444B6003681B681A
:102400000B6005E0054B1B680B6001E003680B6087
:10241000884200D0016010BD3C0000204400002034
:1024200009480068006808B9012000E0002020B1D8
:102430004FF0FF300549086005E003480068C068B8
:1024400000680249086070475C0000208800002096
:1024500000BFBF2080F31188BFF34F8FBFF36F8F92
:1024600000BF00BFFEE700002DE9F04705464FF032
:10247000000900F047FA3048006808B9FFF7DEFEAF
:1024800075B105F00700C0F11008C8F1FF30A8428F
:1024900001D2012000E0002008B9454400E00025F9
:1024A000012000EBE570002841D0002D3FD02348EB
:1024B000006885423BD8224E3046046801E026463B
:1024C00024686068A84202D220680028F7D11A4820
:1024D000006884422BD0306800F108092068306021
:1024E0006068401B102807D967196068401B786036
:1024F00065603846FFF760FF104960680968081A90
:102500000E490860084600680E490968884203D2EF
:102510000A4800680B490860606840F0004060604D
:102520000020206008480068401C0749086000F04F
:1025300051FB4846BDE8F0874400002048000020D9
:102540003C0000204C00002050000020001F4FF0F5
:1025500080730360001F21F001030360001F034B21
:1025600003601438026020387047000051240008CE
:1025700008B501210820FEF7DDFF10208DF80300CB
:1025800003208DF802004FF48070ADF8000069461A
:102590002248FEF707F810208DF8030003208DF87D
:1025A00002004FF40070ADF8000069461B48FDF7CB
:1025B000F9FF10208DF8030003208DF802004FF47E
:1025C0008050ADF8000069461448FDF7EBFF10207D
:1025D0008DF8030003208DF802004FF48040ADF821
:1025E000000069460D48FDF7DDFF04208DF803006B
:1025F00003208DF802004FF40050ADF8000069464A
:102600000648FDF7CFFF4FF400710448FEF760F86D
:102610004FF480710148FEF75BF808BD000C0140E3
:102620008CB000F07BF8FFF7A3FFFEF7F5FE41202A
:10263000FEF7ABFE28E003A95220FEF75DFE04463C
:10264000262804D003A95220FEF756FE0446214650
:102650000EA0FFF773FA262C16D103A8FEF77AFD19
:10266000262811D19DF80F009DF80E10CDE900101D
:102670009DF80D309DF80C2005A104A8FFF76EFA17
:1026800004A90CA0FFF75AFAD5E700002563000063
:1026900054686520436172642049442069733A207C
:1026A00025303258253032582530325825303258AE
:1026B0000000000025730D0A0000000001460A69B1
:1026C000D1E901309860D1E901035860506888422F
:1026D00001D188685060002008611068401E1060B9
:1026E0001068704700F1080141604FF0FF318160D0
:1026F00000F10801C1600161002101607047002103
:102700000161704742684A6093688B6093685960C2
:102710009160086103685B1C0360704700BFBF20C5
:1027200080F31188BFF34F8FBFF36F8F00BF034853
:102730000068401C014908607047000098000020B4
:1027400006480068401E054908600846006820B930
:10275000002080F3118800BF00BF70479800002060
:1027600070B506463546E6B1083D2C466068C00F98
:10277000B8B12068A8B9606820F00040606000F03F
:10278000C1F808496068096808440649086020469D
:10279000FFF712FE04480068401C0349086000F07F
:1027A00019FA70BD480000205400002000204FF0AE
:1027B000E02108618861024848610720086170478C
:1027C0003F19010070B50546FFF7A8FF15B9294864
:1027D000006800E028460446201DFFF76FFF78B927
:1027E000E06A00EB8000244951F8200040B994F8D9
:1027F0002C10012088402149096881431F4801604D
:10280000A06A18B104F11800FFF758FF1C480068CF
:10281000401C1B49086017480068844209D1211DEB
:102820001848FFF76FFF18480068401C16490860F9
:1028300006E016480068401E14490860FFF7F0FDE6
:10284000FFF77EFF0B480068844202D02046FFF766
:10285000EBFC0F48006858B106480068844207D175
:102860004FF080500B490860BFF34F8FBFF36F8F5D
:1028700070BD000058000020A84400207000002017
:1028800084000020484500206400002068000020EB
:102890007400002004ED00E01CB5124800210B4636
:1028A0008022CDE9001010A1114800F097F80446ED
:1028B000012C14D100BFBF2080F31188BFF34F8FCC
:1028C000BFF36F8F00BF4FF0FF300A49086001204F
:1028D0000949086000200949086000F04BF80848E1
:1028E00000681CBD8C00002049444C4500000000DD
:1028F000AD22000888000020740000206C00002039
:102900009000002002480068401C014908607047A0
:10291000940000201248006818B101201149086095
:102920001DE000200F4908600F480068B0FA80F0F1
:10293000C0F11F0101EB81020C4B03EB82004268E6
:102940005268426000F108024368934202D1426833
:10295000526842604268D268054B1A6000BF7047F7
:10296000940000207C00002070000020A84400207B
:102970005800002010B50A48006840F47F0008495C
:1029800008600846006840F07F400860FFF70EFFCF
:10299000002004490860FDF7E7FB002010BD00009F
:1029A00020ED00E09800002010B500BFBF2080F3AC
:1029B0001188BFF34F8FBFF36F8F00BF00F042F855
:1029C00018B14FF080500449086000BF002080F328
:1029D000118800BF10BD000004ED00E02DE9FF4F9D
:1029E00085B0804689461746DDE912ABB800FFF78F
:1029F0003BFD064676B15420FFF736FD04462CB168
:102A000054212046FDF734FC266304E03046FFF7EE
:102A1000A7FE00E000247CB10020CDE900ABCDE9A9
:102A200002403A4649464046089BFFF753FC204681
:102A3000FFF764FB012501E04FF0FF35284609B0A0
:102A4000BDE8F08F2DE9F0410027574800680028C5
:102A50007ED156480068451C544805608DB95448DD
:102A6000D0F8008053480068514908605148C0F8C8
:102A7000008051480068401C4F490860FFF7D0FCB7
:102A800000BF4E480068854276D300BF48480068C2
:102A9000006808B9012000E0002020B14FF0FF30AD
:102AA0004649086067E042480068C068C4686668D4
:102AB000B54202D2414806605DE06069D4E9021285
:102AC0008A60D4E902214A60211D42688A4201D10C
:102AD000E1684160002262610168491E0160A06AEC
:102AE00098B1A06AD4E907128A60D4E907214A6044
:102AF00004F1180142688A4201D1216A4160002232
:102B0000A2620168491E016000BF94F82C100120E8
:102B100088402B490968084329490860E16A01EBAC
:102B20008101284A02EB81014868A0608268E26066
:102B3000211D826851608160E16A01EB8101214AB7
:102B400002EB81026261E16A01EB81011D4A00E052
:102B500022E052F82110491CE26A02EB8202194B72
:102B600043F822101849E06A0968C96A88428DD979
:102B700001278BE700E000BF13480068C06A00EB44
:102B80008000104951F82000012800D901270F4882
:102B9000006800B1012704E00D480068401C0C49A2
:102BA00008603846BDE8F081940000206C000020E9
:102BB0005C000020600000208000002088000020D1
:102BC00070000020A8440020580000207C00002055
:102BD0007800002070B500240026FFF79FFD4B48C9
:102BE0000068401E494908600846006800287DD1F9
:102BF00047480068002879D05BE04648C068C46850
:102C0000A06AD4E907128A60D4E907214A6004F176
:102C1000180142688A4201D1216A41600022A26201
:102C20000168491E01606069D4E902128A60D4E932
:102C300002214A60211D42688A4201D1E168416057
:102C4000002262610168491E016094F82C10012085
:102C500088403149096808432F490860E16A01EB5F
:102C600081012E4A02EB81014868A0608268E2601F
:102C7000211D826851608160E16A01EB8101274A70
:102C800002EB81026261E16A01EB8101234A52F8A1
:102C90002110491CE26A02EB8202204B43F8221009
:102CA0001F49E06A0968C96A884202D301201D49A8
:102CB00008601848006808B9012000E000200028DA
:102CC0009BD00CB1FFF7ACFB1748056865B100BF9E
:102CD000FFF7B8FE10B10120124908606D1E002DEB
:102CE000F6D10020104908600E4800E009E00068B5
:102CF00038B1012630070D490860BFF34F8FBFF38D
:102D00006F8FFFF71DFD304670BD0000940000205E
:102D1000680000203445002070000020A8440020F6
:102D2000580000207C0000207800002004ED00E026
:102D3000502D000800000020A8000000841B00089F
:102D4000F82D0008A8000020C8640000941B0008AB
:102D50000000000001020304010203040607080941
:102D6000020406080000000000000000000000004F
:102D700000000000000000003132333435363738AF
:102D800039300000000000000000000000000000DA
:102D90000000000000000000000000000000000033
:102DA0000000000000000000000000000000000023
:102DB0000000000000000000000000000000000013
:102DC0000000000000000000000000000000000003
:102DD00000000000000000000000000000000000F3
:102DE0000400000000000000AAAAAAAAF000400106
:082DF0000600000000000000D5
:0400000508000131BD
:00000001FF
